:020000040000FA
:10000000D0040020FD0000000501000007010000F1
:1000100000000000000000000000000000000000E0
:1000200000000000000000000000000019010000B6
:1000300000000000000000001B0100001D01000086
:100040001F0100001F0100001F0100001F01000030
:100050001F0100001F0100001F0100001F01000020
:100060001F010000051D00001F0100001F0100000E
:10007000611D00001F0100001F0100001F010000A2
:100080001F0100001F0100001F0100001F010000F0
:100090001F0100001F0100001F0100001F010000E0
:1000A0001F0100001F0100001F0100001F010000D0
:1000B0001F0100001F0100001F0100001F010000C0
:1000C0001F0100001F0100001F0100001F010000B0
:1000D0001F0100001F0100001F0100001F010000A0
:1000E0001F0100001F0100000348854600F034FA9C
:1000F00000480047012F0000D00400200C48804732
:100100000C480047FEE77046EFF30881EFF30982E1
:10011000094B98470047FEE7FEE7FEE7FEE7FEE7EC
:10012000ABBE064B7446984720477046F047000028
:10013000B1190000E9000000E114000035150000CD
:1001400030B50B46014600202022012409E00D466F
:10015000D5409D4205D31D469540491B25469540F7
:1001600040191546521E002DF1DC30BDF0B51FB40C
:100170000646002082B005464024019100901BE015
:10018000019922460F46304600F008FA049A059B72
:10019000801A994110D310461946224600F0EEF914
:1001A000361A8F410197224601200021009F00F05E
:1001B000E5F938184D4100902046641E0028DFDC28
:1001C000019B00982946324607B0F0BDF0B50746BE
:1001D0000846584087B0C00F049048000E465900AA
:1001E00040084908BC1A884105D2384631461E46A7
:1001F00017460B4602465800400810434CD0300DBD
:10020000039040055900400D490D0590401A029099
:10021000402872DA18030121000B090508430190F8
:1002200004980092002805D001995242002088418C
:1002300000920190029840210A1A0199009800F05A
:100240009DF905460C466B4607CB00F0B8F9C0197E
:100250007141039A0E0D0023D71756401A467A4073
:10026000164344D0049A002A2DD0029A012A039AF8
:1002700015DC1205C01A914101263605001C71419A
:10028000D20F059ED2070093019202962A4623467A
:1002900000F0B5F907B0F0BD38463146FAE716056B
:1002A000224A0F46B218C01AB74101210905001CA5
:1002B0004F4100187F41114618187941E20F104351
:1002C0006D19644113E0E2076D0815436408C20725
:1002D0001443039A01261205C01A91413605001CE9
:1002E0007141CE07400830434908C01851412A46A1
:1002F000234600F077F9CDE7FFE70498012240009C
:10030000C117121A00238B4104983146C417381ABA
:10031000A141EEE730B40124E407634030BC55E767
:1003200030B40124E407614030BC4FE70000E0FF37
:10033000F0B51FB488B00B9909980024484009997A
:10034000C00F490049080991C0070B990090490066
:1003500049080B9109990898A64608431CD00B99A7
:100360000A98084318D0099801244000420D48001B
:10037000410D099824050003000B204309900B98B8
:100380000003000B20430B9050181C49401800221A
:1003900001901446104605E0002001460DB0F0BD66
:1003A000032801DA034600E003239C46C11A0AAE83
:1003B0000AE05F0008ADED5B4F00F75B7D4300276F
:1003C000AA187C41491C5B1E6145F2DD410004AB6B
:1003D0005A522104120C0A43240C401C0828DFDB6B
:1003E000019802900099704601910090059B049A33
:1003F0000799069800F003F9D0E700000DFCFFFF15
:10040000F0B50C465C4085B0E40FE40703944C0063
:100410000026640859009446490802460296224381
:1004200021D062460A431ED06200570D4A000E03D7
:100430002303550D012402462C492405781B1B0B70
:10044000360B401823432643614600901C46501A41
:10045000B44103D30098401C009002E09218009829
:100460005B41002803DA0020014605B0F0BD002002
:10047000012109050746864611E064461D46141B06
:10048000B54106D36546521BB341744607430C433E
:10049000A646CD0740084908284392185B41054607
:1004A0000D43EAD11046184313D060461946504018
:1004B0007140084306D06046101AB34106D20122AB
:1004C000002306E000220123DB0702E00122D243E1
:1004D0005310009874460105381C6141029C039D2D
:1004E0000019694100F07EF8BFE70000FD0300003D
:1004F0004A0009030123090B1B0519430A4B10B5D8
:10050000520D9A4202DA0020014610BD064B3433E8
:100510009A4203DC9A1A00F041F810BD034BD2183E
:1005200000F02CF810BD0000FF030000CDFBFFFF22
:1005300010B5002904DB0124E40740428C41214628
:10054000002B04DB1C460123DB075242A3419942E6
:1005500000D1904210BD0000064C0125064E05E07A
:10056000E36807CC2B430C3C98471034B442F7D3D4
:10057000FFF7BEFDF04400001045000010B5202A32
:1005800004DB0146203A9140002010BD9140202319
:100590009C1A0346E3401943904010BD10B5202A31
:1005A00004DB0846203AD040002110BD0B46D34062
:1005B000D0402024A21A91400843194610BD10B51E
:1005C000202A06DBCB170846203A1041C1170B43FF
:1005D00006E00B461341D0402024A21A9140084364
:1005E000194610BD10B5002B08DA0024401C6141EB
:1005F00092185B411A4301D14008400010BDF0B58C
:100600001FB482B005460C0003D0084602F0BEFDC0
:1006100002E002F0BBFD2030024600902146284651
:10062000FFF7ACFF049B059A04460F46184311439D
:10063000084314D0184610431BD0009840210A1AD2
:1006400018460599FFF7AAFF05460E46009A059938
:100650000498FFF793FF084305D0012004E02046EB
:10066000394607B0F0BD0020C11705430E432C43A7
:10067000374300990E986305401A7905E40A002271
:100680000C43FD0A0A3002D500200146E9E70105C6
:10069000101969410C9C0D9D00196941FFF7A2FFDB
:1006A000DFE7000093480168012212041143016052
:1006B0007047C04610B585B0014604900C4882686A
:1006C0000392426802920068019004981F22034638
:1006D000134001229A40000F0C23184001AB185818
:1006E000044BC4581443C450009105B010BDC0461B
:1006F000843A00000402005080B596B00A460346D2
:100700001490139107920693FFF7CCFF14980028DA
:1007100010D1FFE79B480168012211430160104698
:1007200000F056FB00210E91D44912910221119143
:10073000059011E0934801680422114301601020E4
:10074000049200F045FB0121C9040E91CC4912919D
:10075000049911910390FFE713986049884208D8E3
:10076000FFE713985E49884203D3FFE700200F900C
:1007700022E013985B4988420BD8FFE713985A4947
:10078000884206D3FFE701200F9013984000139092
:1007900011E01398554988420BD8FFE71398544944
:1007A000884206D3FFE703200F9013988000139030
:1007B00000E07BE0FFE7FFE70020C1430A910890DB
:1007C0000990FFE71198212853D8FFE71298119953
:1007D000B0FBF1F00D900D984A49884244D3FFE7F1
:1007E0000D98494988423FD8FFE702201090FFE763
:1007F00010984649884236D8FFE70D981099414332
:100800000C910C983749884228D3FFE70C9833495C
:10081000884223D8FFE70C981399884205D9FFE74F
:100820000C981399401A029004E013980C99401AFE
:100830000290FFE702980B900B980A9988420CD21D
:10084000FFE70B980A9011980890109809900A9861
:10085000002801D1FFE706E0FFE7FFE7FFE7109878
:10086000401C1090C4E7FFE7FFE71198401C11906F
:10087000A8E70E980F998903084308994902204A6E
:10088000891808430999891E0843CB490860042048
:1008900000F09EFA12990F9A521C089B5343B1FB29
:1008A000F3F1099A4A431592019013E01498002835
:1008B00004D1FFE7C0481149016003E0BE480E497A
:1008C0000160FFE7042000F083FA009000F026F9B1
:1008D0001590FFE7159816B080BDC0460065CD1D88
:1008E00001C2EB0B00C2EB0B01E1F50500E1F505E0
:1008F00080F0FA0220020050164008002E4000004E
:1009000000FCFFFF016A1800FF23F4000102000051
:1009100082B0014601900198DB4A136803431360DB
:10092000009102B07047C04680B501F005F82C4830
:10093000006880BD80B500F0FFFF2948006880BDD9
:1009400081B0D14800680121084203D0FFE79B48ED
:10095000009002E000200090FFE7009801B070478F
:1009600081B0E74800680221084204D0FFE748F25E
:100970000000009002E000200090FFE7009801B026
:100980007047C0460002005080B582B000F0D4FF2E
:10099000DC4800684021084205D0FFE710480068A5
:1009A0004008019003E00E4800680190FFE70198BD
:1009B00002B080BD80B582B000F0BEFFD1480068B3
:1009C0008021084205D0FFE70548006840080190F3
:1009D00003E0034800680190FFE7019802B080BD82
:1009E0000C00002088B000200690724800907248E9
:1009F0000068059005A880780521084203D0FFE72C
:100A00000020079037E005A880780007002803D56C
:100A1000FFE76B48049002E068480490FFE705A8F0
:100A200080788007002803D5FFE70498079022E02C
:100A300005984CF200010840800B69460143087894
:100A4000019005985F490840801C0390059843F683
:100A500000610840400A801C0290049880080399B5
:100A600041430298019A4243B1FBF2F080000690A4
:100A700006980790FFE7079808B07047001BB7007B
:100A800000366E0188B0002006904A4800904A481F
:100A90000068059005A880780521084203D0FFE78B
:100AA0000020079037E005A880780007002803D5CC
:100AB000FFE74348049002E040480490FFE705A8A0
:100AC00080788007002803D5FFE70498079022E08C
:100AD00005984CF200010840800B694601430878F4
:100AE0000190059837490840801C0390059843F60B
:100AF00000610840400A801C029004988008039915
:100B000041430298019A4243B1FBF2F08000069003
:100B100006980790FFE7079808B0704788B0002054
:100B200006902448009024480068059005A8807825
:100B30000521084203D0FFE70020079037E005A811
:100B400080780007002803D5FFE71D48049002E0E5
:100B50001A480490FFE705A880788007002803D58D
:100B6000FFE70498079022E005984CF20001084046
:100B7000800B6946014308780190059811490840A7
:100B8000801C0390059843F600610840400A801CD1
:100B9000029004988008039941430298019A4243C5
:100BA000B1FBF2F08000069006980790FFE70798E7
:100BB00008B070470102020420020050001BB70079
:100BC00000366E01FF01000080B584B0014603903D
:100BD0008F4800681022104002900398274A9042E4
:100BE000019103D3FFE7C0480390FFE7039824492E
:100BF000884203D8FFE723480390FFE74048016895
:100C0000042211430160102000F0E2F86F490A68E5
:100C100007231A430A606C490A680F239A430A6043
:100C20007B49096801221142009007D0FFE7039831
:100C300041000020FFF760FD03900CE003984100A5
:100C40000120C004FFF758FD03907148006810218F
:100C500008400290FFE70220002100F017F80298F8
:100C6000002806D1FFE7264801680422914301606D
:100C7000FFE70398400804B080BDC04601A24A04C3
:100C80003F787D0140787D010002005070B588B04A
:100C90000A460346079006915D4800681021084007
:100CA00005901748046804252C4304600846049204
:100CB0000393029500F08CF844490A680723DB434C
:100CC0001A40029C22430A603F4A15680F26B5432A
:100CD000069E354315600A681A40079B1A430A604E
:100CE000019000F029FE0598002806D1FFE704488E
:100CF0000168042291430160FFE708B070BDC0465F
:100D00000002005010020050B0B58EB013460C46E1
:100D100005460D900C910B9200200A9009902848EE
:100D2000C168089181680791416806910068059043
:100D3000244841680491006803900D98800A0006D9
:100D4000002802930194009518D0FFE70DA8408871
:100D50000C21084003A908581B494018099009981C
:100D600000680D998A0AD2B249091F2319408A40A6
:100D700090430B99084309990860FFE70D98400ECE
:100D80004007002819D0FFE70D98800E0C2108407D
:100D900005A908580D4940180A900A9800680D994D
:100DA0004A0E07231A40090D1F2319408A40904319
:100DB0000C9908430A990860FFE70EB0B0BDC04621
:100DC000DC430000FC4300001802005010020050F9
:100DD00084B0014602900D4801900091FFE70C4855
:100DE00000680299084088420AD0FFE70198411E36
:100DF0000191002803DCFFE70020039003E0EEE709
:100E000001200390FFE7039804B07047C0C62D008F
:100E10000C02005080B5064801680F22120691436B
:100E20000160044844F20001012200F005F880BD91
:100E30003C00005040400050B0B587B013460C460F
:100E400005460690059104920020039002930194B8
:100E50000095FFE703980F2819D8FFE70598039935
:100E600001228A4010420DD0FFE7069800680399DE
:100E7000490003228A409043049A8A40104306990D
:100E80000860FFE7FFE70398401C0390E2E707B024
:100E9000B0BD000070B58EB013480D9013490C9191
:100EA00040F277120B92124B0A93124C09946D4642
:100EB00000266E6118262E61EC60AB606A602960C6
:100EC0000D4940F2001241F20003089008460791D4
:100ED00011461A46089B00F011F807980168022293
:100EE000114301600EB070BD00A24A046504000009
:100EF000EE0200003075000000421540F0B597B0DA
:100F0000219C209D1F9E1E9F0B901D980A901C984F
:100F100009901846089010460790084606900B98CE
:100F200005900B981690159114921393002112912D
:100F30000495039602970194FFF7FCFC1190119819
:100F400012901598149908431699086020981699DC
:100F5000486121981699086213981199884205D31F
:100F6000FFE700201090169988612DE01398002863
:100F700007D1FFE7FF20109016998A6902438A6122
:100F800021E012980A210A4642431398B2FBF0F07E
:100F9000401DB0FBF1F0401E10901098000A002890
:100FA00007D0FFE7FF20109016998A6902438A61F3
:100FB00008E016988069FF21884310990843169924
:100FC0008861FFE7FFE7FFE712980A210A464243DC
:100FD0005648B2FBF0F01C9A424340F2E830B2FBB4
:100FE000F0F0109A521CB0FBF2F0401DB0FBF1F093
:100FF0000F900F98000A002807D0FFE7FF200F90FE
:1010000016998A6802438A6008E016988068FF2172
:1010100088430F99084316998860FFE712980A21C0
:101020000A4642434148B2FBF0F01D9A424340F267
:10103000E830B2FBF0F0109A521CB0FBF2F0401D09
:10104000B0FBF1F00E900E98000A002807D0FFE7E1
:10105000FF200E901699CA680243CA6008E01698ED
:10106000C068FF2188430E9908431699C860FFE7BE
:1010700012980A210A4642432C48B2FBF0F01E9A0D
:10108000424340F2E830B2FBF0F0109A521CB0FB41
:10109000F2F0401DB0FBF1F00D900D98000A002811
:1010A00008D0FFE7FF200D901699CA68000402439C
:1010B000CA600AE01698C068FF21090488430D99A8
:1010C000090408431699C860FFE712980A210A46E6
:1010D00042431648B2FBF0F01F9A424340F2E83018
:1010E000B2FBF0F0109A521CB0FBF2F0401DB0FBC6
:1010F000F1F00C900CA84088002807D0FFE70C48BE
:101100000C9016994A6802434A6008E016984068B5
:10111000904908400C99084316994860FFE71698D3
:10112000016801221143016017B0F0BD40420F0079
:10113000FFFF000080B588B00A460346079006917D
:1011400002200592049300F063FA102000F068F882
:10115000069A042042F20001039000F0D9F8002022
:10116000039902900846029A00F084F807996846AD
:1011700040F600420260064B0398029A00F096F88F
:1011800027210398029A029B00F0E6F808B080BD80
:101190001042154082B0014601AA1070107840B28A
:1011A000002800910EDBFFE701A8007840B21F2164
:1011B00002460A4001219140C008104A1040104ADE
:1011C0008150FFE702B0704782B0014601AA10705B
:1011D000107840B2002800910EDBFFE701A80078EC
:1011E00040B21F2102460A4001219140C008034A33
:1011F0001040034A8150FFE702B07047FCFFFF1F19
:1012000000E100E0BFF34F8F034804490160BFF3E2
:101210004F8FFFE700BFFDE70CED00E00400FA058B
:1012200083B001460290002001900091FFE70198F1
:10123000092815D8FFE70198012181400298014251
:1012400009D0FFE701980001A2490022425001980D
:101250009C490A54FFE7FFE70198401C0190E6E72C
:10126000029803490A6802430A6003B07047C04607
:101270000084005070B586B013460C4605460590B4
:101280000491039205980001924942587426B24392
:1012900042500498039A1043059A12015658064387
:1012A000565002930194009506B070BDF0B58AB017
:1012B0000F9C1D4616460F46059004900598099010
:1012C0000891079206930899099A12010E4BD15082
:1012D0000699099A12010D4BD150099909017D4ACD
:1012E0008B5840F6007083438B5007980F99084342
:1012F000099909018B5803438B5003950296019776
:1013000000940AB0F0BDC046048000500880005030
:1013100070B586B013460C460546059004910392BD
:10132000059800016B494258094E324042500498DA
:10133000039A1204074E92191043059A1201565847
:101340000643565002930194009506B070BDC04606
:10135000FFCF00C00000FFFFF0B589B01C46154666
:101360000E4607460890079106920593079808993C
:10137000544A5054089809280494039502960197FA
:10138000009077D80098810001A251188F46C0467E
:1013900000F012B800F018B800F020B800F028B83B
:1013A00000F030B800F036B800F03EB800F046B8B3
:1013B00000F04EB800F054B8454801683F22914310
:1013C000079A1143016056E04148016843F60072F4
:1013D0009143079A1202114301604CE03C480168B6
:1013E0003F2212049143079A12041143016042E024
:1013F000374801683F2212069143079A12061143AB
:10140000016038E0314801683F229143079A114357
:10141000016030E02D48016843F600729143079A5D
:1014200012021143016026E0284801683F2212049D
:101430009143079A1204114301601CE0234801689C
:101440003F2212069143079A12061143016012E0EF
:101450001D4801683F229143079A114301600AE049
:101460001948016843F600729143079A120211432A
:101470000160FFE7FFE70698002814D0FFE708980F
:101480000001144940580322904302221043089A55
:1014900012015050059810490968401A089909012D
:1014A0000E4A88500BE0089800010A494058032270
:1014B000904301221043089A12015050FFE709B0EF
:1014C000F0BDC046C20000208884005084840050D3
:1014D00080840050008000503C8400500C800050FC
:1014E000B0B588B013460C460546079006910592A4
:1014F00007A800784007002803930294019503D5BC
:10150000FFE70598049002E006980490FFE708487A
:1015100001F02CFE0090FFE70498006801210843C9
:10152000002801D0FFE7F7E7079808B0B0BDC04634
:10153000E1440000B0B586B013460C460546059060
:1015400004910392002002930194009506B0B0BD6F
:1015500080B586B000F07CF80420FFF7D9F91020A0
:10156000FFF736FC214905900846FFF72DFB20497F
:10157000049008460391FFF79DF803200106002020
:10158000039A02901046029AFFF7BEFB1948019099
:10159000FFF790F840F200710198029AFFF7B4FB50
:1015A00015480090FFF786F847F200010098029A6C
:1015B000FFF7AAFB1148FFF77DF80120FFF77AF843
:1015C0000F480168FF221204914333225204114351
:1015D00001600C48016840F600721143016000F0A0
:1015E000ABF900F011F806B080BDC04600A24A0475
:1015F000103D80570200805E0300C05E1300008033
:101600003C00005040000050194800210160704724
:1016100070B582B00146019001980B4A0346134011
:10162000012425469D40000E084BC6582E43C65047
:10163000019805461540AC40000EC258A243C25066
:10164000009102B070BDC046FFFFFF0008000050CF
:10165000FFE70748592101601621016088210160D8
:10166000FFE7034800680028F3D0FFE77047C04653
:101670000001005080B582B00146019001980091B0
:1016800000F002F802B080BD82B00146019001A8CE
:1016900000780A2800910DD1FFE7FFE70C480068A9
:1016A0000121C905084201D0FFE7F7E709480D21EC
:1016B0000160FFE7FFE7064800680121C90508420D
:1016C00001D0FFE7F7E701980249086002B07047D0
:1016D000180005400000054080B58CB093480078A4
:1016E000401E33280B9000D91DE10B98810001A208
:1016F00051188F4600F066B800F06BB800F072B871
:1017000000F082B800F087B800F089B800F0A1B806
:1017100000F0AEB800F0C2B800F005B900F003B9AF
:1017200000F001B900F0FFB800F0FDB800F0FBB820
:1017300000F0F9B800F0F7B800F0F5B800F0F3B831
:1017400000F0F1B800F0EFB800F0EDB800F0EBB841
:1017500000F0E9B800F0E7B800F0E5B800F0E3B851
:1017600000F0E1B800F0DFB800F0DDB800F0DBB861
:1017700000F0D9B800F0D7B800F0D5B800F0D3B871
:1017800000F0D1B800F0CFB800F0CDB800F0CBB881
:1017900000F0C9B800F0C7B800F0C5B800F0C3B891
:1017A00000F0C1B800F0BFB800F0BDB800F0BBB8A1
:1017B00000F0B9B800F079B800F07BB800F089B853
:1017C00000F096B81E2001F0F7F9052000F0C0FDEA
:1017D000A9E00A200A900A9901F023FA782000F083
:1017E000B7FDA0E052480088032141435148421808
:1017F000415C937852783C2001F070FA0A2000F0A6
:10180000A7FD01F03BFC8EE01E2001F0EAFA0A2061
:1018100000F09EFD87E01E2001F05AF983E0444865
:1018200000880321414343484218405C5178927834
:101830006B46DA60996058601A6020220990104661
:1018400008911146099A089B00F0E4FD01F016FC8E
:1018500069E0374800880321414336484218415C1B
:10186000937852781E2000F07CFF01F007FC5AE0CC
:101870002F480088032141432E484218405C53788A
:1018800091786A4611603C210A2207900846114669
:10189000079A01F0BCF801F0F1FB44E01E2000F0D3
:1018A00097FE0A2000F054FD3DE00A2000F070FD94
:1018B00039E01F480088032141431E484218415C1B
:1018C0009378527840F2843000F0A5FF01F0D6FB07
:1018D00029E0174800880321414316484218415C1B
:1018E000937852781E2000F036FE01F0C7FB1AE014
:1018F0000F480088032141430E484218405C51784C
:1019000092786B46DA60996058601A60A0221023C2
:101910000690104605911946069A059B00F0B0FE08
:1019200001F0ACFBFFE70CB080BDC0460400002016
:1019300018000020B03A000080B584B01648006856
:10194000072108400290FFF74DF8144908600298FB
:10195000022806D0FFE7029880001149085803903A
:1019600004E00E48006840080390FFE70D48006857
:101970000F210840401C019003980199B0FBF1F041
:10198000AB4908600868084940187449B0FBF1F099
:101990000649086004B080BD100200500800002015
:1019A0000C4400001802005020A107000000002095
:1019B0007047000080B582B00120C106E64840F2C1
:1019C000E832019000F036F901990090084600F0E5
:1019D000CBF80920FFF7DEFB019800F087F902B091
:1019E00080BDC04682B0014601900198012282600C
:1019F000009102B07047000080B58AB00A460346E5
:101A00000990089109980292019300F0C3F8079099
:101A10000020069086490968079AB1FBF2F1491C3B
:101A20000591099908600999486107984B498842CE
:101A300012D8FFE70898C0087C2804D8FFE740F2D6
:101A4000E8300890FFE708984549884203D3FFE74C
:101A500042480890FFE70FE00898632803D8FFE7A3
:101A600064200890FFE708983D49884203D3FFE7C8
:101A70003A480890FFE7FFE707983849884210D8AE
:101A8000FFE70020069007983649B1FBF0F003907D
:101A9000089840F2E83141430398B1FBF0F004901C
:101AA0003DE007988E49884206D3FFE7072006905D
:101AB0000798C008079017E007988A49884206D31C
:101AC000FFE7032006900798800807900BE007982F
:101AD0008549884206D3FFE7012006900798400811
:101AE0000790FFE7FFE7FFE70898F92808D8FFE726
:101AF0000898079941431948B1FBF0F004900DE0B4
:101B000007981849B1FBF0F00390089840F2E831CB
:101B100041430398B1FBF0F00490FFE7FFE704981E
:101B200009994860069801218907084309990860C6
:101B3000FFE70598002806D0FFE700BFFFE70598FC
:101B4000401E0590F5E7FFE7099800680121490666
:101B5000084201D0FFE7F7E70AB080BD40420F001E
:101B600041420F0000CA9A3B82B0014601900198A1
:101B7000026801235B071A430260009102B07047BC
:101B800082B00146019001988068012210400091C6
:101B900002B0704784B0014602900298204A9042F9
:101BA000009108D1FFE72048006840F2007108402A
:101BB000000A019023E002986749884208D1FFE7B4
:101BC0001948006847F200010840000B019015E039
:101BD00002981449884208D1FFE71348006807219A
:101BE00009040840000C019007E00F480068072135
:101BF00009050840000D0190FFE7FFE7FFE70198A6
:101C0000022804D1FFE70A480068039005E0019824
:101C10008000064908580390FFE7039804B0704716
:101C2000000001400000114014020050903A0000F2
:101C30000C000020B0B58AB013460C46054609904A
:101C4000089107920998039302940195FFF7A2FF68
:101C5000069000200590049007980699490888424C
:101C600003D9FFE70220059028E006981C49884226
:101C700006D3FFE7072004900698C008069017E0F7
:101C800006981849884206D3FFE703200490069877
:101C9000800806900BE006981349884206D3FFE7B8
:101CA00001200490069840080690FFE7FFE7FFE751
:101CB00006980799B0FBF1F00590FFE708980499A2
:101CC000084309990860059809994860069805999C
:101CD000049A521C4A43B0FBF2F00AB0B0BDC046B1
:101CE0000190D0030148E8010124F40082B00146CC
:101CF00001900198026801239B071A43026000913A
:101D000002B0704780B51448FFF73AFF012822D18E
:101D1000FFE71148FFF766FE01F020FA01F0E8F84E
:101D200040F2E831B0FBF1F25143401A002806D1ED
:101D3000FFE70A480168012251400160FFE701F016
:101D4000D7F83221B0FBF1F25143401A002801D1FB
:101D5000FFE7FFE7FFE780BD200001407842005029
:101D600080B51448006841F20011084204D0FFE732
:101D70000120002804D10FE0012000280CD1FFE74A
:101D8000FFE70D48006844F20001084203D1FFE775
:101D900000F06EF9F5E7FFE7074800687121084297
:101DA00006D0FFE7F14842F2004100F05FF8FFE79C
:101DB00080BDC0461C0005401800054080B58EB0AF
:101DC0002348FFF725FCE1204102E8480D9000F090
:101DD000A5F811210D9800F07FF80C20FFF7DAF933
:101DE000FEF7A2FD1B490C9008460C9901F0BEF9C4
:101DF0000B90FEF7A5FD18490A9008460A9901F0D4
:101E0000B5F90990FEF7ACFD144908900846089909
:101E100001F0ACF90790FEF7B7FD114906900846AE
:101E2000069901F0A3F90590FEF7C4FD0D49049051
:101E30000846049901F09AF90390FEF77BFD0A49E0
:101E400002900846029901F091F901900EB080BD10
:101E500010000004B6440000884400009F440000C5
:101E60003E440000574400007044000084B00A461D
:101E700003460390029102A840784007002801928F
:101E8000009304D5FFE7039868218161FFE702A86A
:101E900040780007002806D5FFE703984169012232
:101EA00011434161FFE702A840788006002804D56D
:101EB000FFE7039807498161FFE702A840784006E1
:101EC000002805D5FFE70398406C03994864FFE7B5
:101ED00004B070470100000110B584B00A46034603
:101EE00003900291029803994C6804434C60039854
:101EF0009E4988420192009304D1FFE70C20FFF72E
:101F000063F909E003985649884204D1FFE70D20A0
:101F1000FFF75AF9FFE7FFE704B010BD80B58CB0BA
:101F20000A4603460B900A914C48C16807918168A4
:101F300006914168059100680490002003900B9879
:101F40008A49884202920193009005D0FFE74448F5
:101F50000099814211D021E042480068032109061E
:101F60000840000E09A908703F48006840F600715B
:101F70000840000A08A9087010E03A4800680321E8
:101F800089060840800E09A90870374800684FF29A
:101F900000010840000B08A90870FFE709A80078B5
:101FA000012809D1FFE7FEF76DFD400809A909786E
:101FB000890004AA5050FFE70B98002101630B9899
:101FC0000321C1600B988168284A1140816009A8EB
:101FD0000078012809D1FFE7FEF754FD400809A960
:101FE0000978890004AA5050FFE70A98002832D0E7
:101FF000FFE709A80078800004A9085808A9097813
:10200000491CB0FBF1F00A994A088018B0FBF1F0C6
:10201000801E039003A84088002814D0FFE709A879
:102020000078800004A9085808A90978491CB0FB69
:10203000F1F00A99CA008018B0FBF1F00009801E87
:102040000B99486206E003980321090708430B999E
:102050004862FFE7FFE70CB080BDC046AC4300001C
:102060000000154014020050180200500FFFF0FF4E
:1020700080B584B003A8002101703C490968017053
:102080000078782805D0FFE703A80078582803D106
:10209000FFE7FFF7B7F8FFE703A80078802805DB24
:1020A000FFE7354801F062F802905DE003983038B0
:1020B0002F49087009782F4801F058F803A90978CA
:1020C00058392229019000914DD80098810001A231
:1020D00051188F4600F044B800F045B800F040B801
:1020E00000F041B800F03FB800F03DB800F03BB858
:1020F00000F039B800F037B800F035B800F033B868
:1021000000F031B800F02FB800F02DB800F02BB877
:1021100000F029B800F027B800F025B800F023B887
:1021200000F021B800F01FB800F01DB800F01BB897
:1021300000F019B800F017B800F015B800F013B8A7
:1021400000F011B800F00FB800F00DB800F00BB8B7
:1021500000F009B800F004B800F005B800F000B8CD
:10216000FFF750F8FFE7FFE704B080BD000005402F
:10217000040000202C440000CF440000B0B587B01C
:1021800013460C4605460690059104923A4800789D
:10219000052803930294019500905FD80098810070
:1021A00001A251188F46C04600F00AB800F015B8D9
:1021B00000F020B800F02BB800F036B800F041B8BD
:1021C00030480178491C01700078FF2804D1FFE7EE
:1021D000294801210170FFE740E029480178491EA4
:1021E00001700078002804D1FFE723480221017024
:1021F000FFE733E021480178491C01700078FF288F
:1022000004D1FFE71C4803210170FFE726E01D48C9
:102210000178491E01700078002804D1FFE71648B4
:1022200004210170FFE719E015480178491C01708D
:102230000078FF2804D1FFE70F4805210170FFE770
:102240000CE00E480178491E01700078002804D186
:10225000FFE7094800210170FFE7FFE70948007820
:1022600005990870064800780699087003480078B8
:102270000499087007B0B0BDBA000020B800002073
:1022800010000020B9000020F0B58CB01C461546A7
:102290000E46074606900AA80590069804910599EF
:1022A000087004980990089207930A9AFF239A1AD3
:1022B0000A700A78542A039602970194009512DC5A
:1022C000FFE70898002101700A9803221346434350
:1022D000FF20C01A099B18700A98424307980270A1
:1022E0000BA8017030E00AA80078A92816DCFFE7E7
:1022F0000A9855380AA908700A9803210A464243E9
:10230000089802700998002202700A984143FF2041
:10231000401A079908700BA8027015E00A98AA38AD
:102320000AA908700A9803210A464243FF20801A2E
:10233000089A10700A984143099801700798002183
:1023400001700BA80170FFE70BA800780CB0F0BD7E
:1023500080B582B0014601AA1080108840F2E832B0
:102360004243034800911146FFF746FB02B080BD8F
:102370000000014080B584B00A46034603900291F4
:10238000039801920093FFF775F9039804B080BD9C
:1023900080B584B0014603AA108002A80022028002
:1023A00001AB1A7002800091FFE702A8008818496B
:1023B00088422BDCFFE701A800210170FFE701A89C
:1023C0000078172813DCFFE702A8008803214143A7
:1023D000AA484218415C9378527801A8007800F02E
:1023E000BBFDFFE70198401C01A90870E7E7122038
:1023F00000F0A2FE03A80088FFF7AAFF00F098FDF6
:10240000FFE70298401C02A90880CEE704B080BD17
:10241000FD020000F0B597B01F9C1E9D1D9E1C9FE5
:102420000A901846099010460890084607900A98A6
:10243000069016A805900A9804910599088015A998
:102440000498088014A8027013AA137012AB1F70AE
:1024500011AF3E7010AE35700FAD2C700EAC039006
:10246000002020803F78029003980078381A0F8867
:1024700090FBF7F00D9030781278801A0A8890FB64
:10248000F2F00C9028781A78801A098890FBF1F005
:102490000B9002982080FFE70EA8008815A90988F4
:1024A000884226DAFFE714980EA909880D9A4A4354
:1024B0008018139A0C9B4B43D218129B0B9C4C43D5
:1024C0001919C0B2D2B2C9B201911146019A00F0F5
:1024D00007FE16A8008815A90988B0FBF1F0FFF7E0
:1024E00037FF00F025FDFFE70E98401C0EA908807D
:1024F000D2E71598401E0EA90880FFE70EA80088B5
:10250000012826DBFFE714980EA909880D9A4A4393
:102510008018139A0C9B4B43D218129B0B9C4C4374
:102520001919C0B2D2B2C9B200911146009A00F096
:10253000D7FD16A8008815A90988B0FBF1F0FFF7B0
:1025400007FF00F0F5FCFFE70E98401E0EA908807B
:10255000D4E717B0F0BDF0B58DB01C4615460E4659
:10256000074607900CA806900798059106990880E1
:102570000BA9059808700AA90A7009A90B7008A987
:1025800000220A700495039602970194FFE708A8B9
:102590000078172817DCFFE709A803780AA8027853
:1025A0000BA8017808A8007800F0D6FC122000F0F3
:1025B000C3FD0CA80088FFF7CBFEFFE70898401C7E
:1025C00008A90870E3E700F0B3FC0DB0F0BD00000F
:1025D000B0B58AB0014609AA108008A8002202807E
:1025E00007A8027006AB1A7005910492039000F0E0
:1025F0009FFC049803990870FFE707A80078172844
:1026000037DCFFE708A8018807AA13781F245C437A
:102610000919194BB1FBF3F41D466543491B06AC80
:102620002170217803244C4314490D19095DAC78BD
:102630006D781278029010462A460193234600F0E6
:102640008BFC122000F078FD09A80088FFF780FEBF
:1026500008981F30029908800888019AB0FBF2F3AD
:102660005A43801A0880FFE70798401C07A90870A2
:10267000C3E70AB0B0BDC046FE020000B03A000099
:10268000F0B597B01F9C1E9D1D9E1C9F0A9018467A
:10269000099010460890084607900A98069016A8D8
:1026A00005900A9804910599088015A90498088056
:1026B00014A8027013AA137012AB1F7011AF3E70F2
:1026C00010AE35700FAD2C700EAC03900020208042
:1026D0003F78029003980078381A0F8890FBF7F043
:1026E0000D9030781278801A0A8890FBF2F00C90E6
:1026F00028781A78801A098890FBF1F00B900298DC
:102700002080FFE70EA8008815A90988884224DAEE
:10271000FFE714980EA909880D9A4A438018139A66
:102720000C9B4B43D218129B0B9C4C431919C0B203
:10273000D2B2C9B201911146019A00F0D1FC16A89B
:10274000008815A90988B0FBF1F0FFF701FEFFE74B
:102750000E98401C0EA90880D4E700F0E9FB17B0E2
:10276000F0BDF0B58DB01C4615460E4607460790E5
:102770000CA8069007980591069908800BA9059862
:1027800008700AA90A7009A90B7008A900220A702A
:102790000495039602970194FFE708A8007817288C
:1027A00017DCFFE709A803780AA802780BA80178CC
:1027B00008A8007800F0D0FB122000F0BDFC0CA8A7
:1027C0000088FFF7C5FDFFE70898401C08A90870BE
:1027D000E3E708A800210170FFE708A800781728A0
:1027E00015DCFFE708A8007800210091009A009B03
:1027F00000F0B2FB122000F09FFC0CA80088FFF74D
:10280000A7FDFFE70898401C08A90870E5E700F05D
:102810008FFB0DB0F0BDF0B59BB01C4615460E46C3
:1028200007460E901AA80D900E980C910D990880ED
:1028300019A90C98087018A8027017AA137010AB89
:102840000B90002018700A900FA80990232008917F
:1028500009990870089801780C20B1FBF0F10790F5
:1028600016A801700B9801780798B1FBF0F115A834
:10287000017010780799B0FBF1F014AA1070169847
:102880000B221146414313A801701598114641438C
:1028900012A801701498424311A802700A980A996C
:1028A0000A9A0695059604970393029400F018FC83
:1028B0000A9803990870FFE710A800780B281EDC1F
:1028C000FFE710A8007816994143159A4243149BDC
:1028D0004343C8B2D1B2DAB200F002FC1AA80088B1
:1028E0000FA909780F31B0FBF1F0FFF731FD00F0CF
:1028F0001FFBFFE71098401C10A90870DCE710A828
:1029000000210170FFE710A800780B2827DCFFE703
:10291000139810A90978169A4A43801A129A159B9F
:102920004B43D21A119B149C4C43191BC0B2D2B218
:10293000C9B201911146019A00F0D2FB1AA8008891
:102940000FA909780A31B0FBF1F0FFF701FD00F0A3
:10295000EFFAFFE71098401C10A90870D3E710A801
:1029600000210170FFE710A800780B281EDCFFE7AC
:1029700010A8007816994143159A4243149B43438B
:10298000C8B2D1B2DAB200F0ABFB1AA800880FA926
:102990000978491DB0FBF1F0FFF7DAFC00F0C8FA46
:1029A000FFE71098401C10A90870DCE710A8002170
:1029B0000170FFE710A800780B2826DCFFE71398CA
:1029C00010A90978169A4A43801A129A159B4B430C
:1029D000D21A119B149C4C43191BC0B2D2B2C9B27B
:1029E00000911146009A00F07BFB1AA800880FA9FD
:1029F0000978B0FBF1F0FFF7ABFC00F099FAFFE7C4
:102A00001098401C10A90870D4E71BB0F0BDF0B5B9
:102A100091B0169C1D4616460F460890079010A8C8
:102A2000069008980591069908800FA905980880D6
:102A30000EA802700DA803700CA804700BA8002249
:102A4000027009881823B3FBF1F10AAB19800495D1
:102A5000039202970196009000F06AFA0398009999
:102A60000870FFE70BA8007817282EDCFFE700F0BE
:102A70005FFA09A800210180FFE709A800880FA9D3
:102A80000988884214DAFFE70B9809990A9A4A43A1
:102A90008018C0B20CA90B780DA90A780EA9097884
:102AA00000F05AFAFFE70998401C09A90880E4E7FA
:102AB000122000F041FB10A80088FFF749FCFFE757
:102AC0000B98401C0BA90870CCE711B0F0BD0000BA
:102AD000F0B585B0014604AA108003A80022027058
:102AE00033480078002802910DD0FFE73148017883
:102AF000491C01700078FF2804D1FFE72C48002111
:102B00000170FFE70CE02B480178491E0170007846
:102B1000002804D1FFE7264801210170FFE7FFE705
:102B200003A800210170FFE703A8007817283ADC0A
:102B3000FFE72048007803A909780322B1FBF2F3EC
:102B400014465C430B1B02241D4625405B1B43437C
:102B50004D1CB5FBF2F617467743ED1B2E4626407B
:102B6000AD1B45438E1CB6FBF2F77A43B21A1646EC
:102B70002640921B4243D8B2EBB2D2B20190084633
:102B8000019900921A46009B00F0E6F9122000F02D
:102B9000D3FA04A80088FFF7DBFBFFE70398401C8B
:102BA00003A90870C0E700F0C3F905B0F0BDC04646
:102BB000C1000020C0000020B0B58AB0014609AABB
:102BC000108008A80022027005AB1A7002700491F0
:102BD000FFE708A80078172818DCFFE707A806A970
:102BE00005AA039002910192FFF7C8FA01980378B1
:102BF00002990A78039C217808AD287800F0ACF996
:102C0000FFE70898401C08A90870E2E7122000F0CE
:102C100093FA09A80088FFF79BFB00F089F90AB036
:102C2000B0BD70B58EB00A4603460DAC20700CA83E
:102C300001800BA8002101800AA8018007AC217047
:102C4000018006920593FFE70AA800880DA909787C
:102C50000902884240DAFFE70BA800210180FFE764
:102C60000BA80088172828DCFFE70BA801880902B9
:102C70001822B1FBF2F10A9A8918C9B209AA08AB65
:102C800007AC04900846114603921A460293234665
:102C90000194FFF7F9FA01990B78029A1278039CD4
:102CA0002178049D2E780090304600F055F9FFE71A
:102CB0000B98401C0BA90880D2E7122000F03CFAC8
:102CC0000CA80088FFF744FB00F032F9FFE70A98F0
:102CD000401C0AA90880B7E70EB070BDF0B58FB0F0
:102CE0001C4615460E46074607900EA80690079804
:102CF0000591069908800DA9059808700CA90A701D
:102D00000BA90B700AA900220A8009AB1A8008AB34
:102D10001A800A800495039602970194FFE70AA897
:102D2000008809285BDCFFE700F002F909A8002110
:102D30000180FFE709A8008802284ADCFFE708A80D
:102D400000210180FFE708A80088172812DCFFE7B0
:102D5000089809994018C0B20BA90B780CA90A78F9
:102D60000DA9097800F0F8F8FFE70898C01C08A939
:102D70000880E8E7122000F0DFF90EA80088FFF7CE
:102D8000E7FA08A800210180FFE708A800881728B3
:102D900010DCFFE7089809994018C0B200210091A3
:102DA000009A009B00F0D8F8FFE70898C01C08A91B
:102DB0000880EAE7122000F0BFF90EA80088FFF7AC
:102DC000C7FA00F0B5F8FFE70998401C09A9088088
:102DD000B0E7FFE70A98401C0AA908809FE70FB0F8
:102DE000F0BD70B58EB001460DAA10800CA800226F
:102DF00002800BAB1A700AAB1A8007AB1A70028004
:102E00000691FFE70CA80088FF286EDCFFE70BA8FF
:102E100000210170FFE70BA8007802285FDCFFE7C4
:102E20000AA800210180FFE70AA80088172827DCEC
:102E3000FFE70AA800880CA909884018FF21B0FB09
:102E4000F1F25143401A09A908AA07AB059104926F
:102E50000393FFF719FA0A990B9A8918C9B2039AD2
:102E60001378049C2278059D2E78029008463146FE
:102E700000F072F8FFE70A98C01C0AA90880D3E79F
:102E8000122000F059F90DA80088FFF761FA0AA88E
:102E900000210180FFE70AA80088172810DCFFE75F
:102EA0000A980B994018C0B200210191019A019B28
:102EB00000F052F8FFE70A98C01C0AA90880EAE768
:102EC000122000F039F90DA80088FFF741FA00F050
:102ED0002FF8FFE70B98401C0BA908709BE7FFE752
:102EE0000C98401C0CA908808CE70EB070BD000047
:102EF0009D4800687047C04680B5FEF7EDFB80BD79
:102F000080B582B0002001900090FEF721FBFEF713
:102F100055FFFDF77FFFFEF74DFD00980099009AE1
:102F200000F0DEF8FDF7B6FFFFE7FFF7E5FFFCE78F
:102F300081B000200090FFE7009811280AD8FFE731
:102F400000988000844900220A50FFE70098401C46
:102F50000090F1E701B07047F0B58FB01C46154600
:102F60000E46074607900EA8069007980591069909
:102F700008700DA8059901700CA802700BA80370C9
:102F800000200A9009AA107008AB18700698007803
:102F9000032108401070069801788908197011788B
:102FA00003290495039602970194009164D8009830
:102FB000810001A251188F4600F006B800F017B842
:102FC00000F02DB800F044B80DA800780CA90978DD
:102FD000090208430BA909780904084308A90978DC
:102FE0000C224A435C498B5803438B5044E00D98B4
:102FF000000608A90A780C231C465443564A155962
:103000000543155108784343D0180CA909780BAA39
:1030100012781202114342680A4342602CE00DA864
:10302000007800040C990906084308A90A780C23C3
:103030001C465443484A141965680543656008787E
:103040004343D0180BA9097882680A43826013E0D1
:103050000DA8007800020CA90978090408430B990F
:103060000906084308A909780C224A433A498918F5
:103070008A6802438A60FFE70FB0F0BD1548007808
:10308000002813D0FFE7144800881449884207DB62
:10309000FFE71048002101700F481049018004E04B
:1030A0000D480188491C0180FFE711E00A480088AB
:1030B000002807D1FFE707480121017006480021D9
:1030C000018004E004480188491E0180FFE7FFE712
:1030D0007047C0461100002018000020FD020000CB
:1030E00070B588B013460C46054607AE307006A88A
:1030F000017005A8027004A80021017003930294D6
:103100000195FFE704A80078172810DCFFE705A861
:10311000037806A8027807A8017804A80078FFF7CA
:103120001BFFFFE70498401C04A90870EAE712207F
:1031300000F002F808B070BD80B584B0014603AA63
:1031400010801088044A02901046029A019111469C
:10315000FDF7F0FF04B080BD1C00002002480168AC
:10316000491C01607047C046BC0000200FB410B578
:1031700003A9044B044A029800F0E8F810BC08BC0C
:1031800004B0184775230000640000202021020CC1
:1031900001D010211046020A01D010460839020958
:1031A00001D01046091F820801D01046891E42082E
:1031B00001D0881E7047081A704702E008C8121F25
:1031C00008C1002AFAD170477047002001E001C110
:1031D000121F002AFBD17047F0B51FB486B00998C2
:1031E000089A030D0021024314D05148514A18187F
:1031F000504305141198012810981AD0281A401C21
:1032000000264D4F4D49009601910490002812DA96
:10321000444211E01198012449A3012801D11098DA
:10322000C1430698119A84600360C26041600BB08C
:10323000F0BD4042E4E70446210500203F4A001C5F
:1032400051410391029012E0E00707D032463B461D
:1032500001990098FDF76CF80191009032463B46C9
:1032600010461946FDF764F806460F466410002C18
:10327000EAD10498039B0028029A0999089806DA73
:10328000FDF756F8019B009AFDF752F805E0FDF7AF
:10329000B7F8019B009AFDF7B3F804460E460022EA
:1032A000284BFDF745F903D80020C043014607E04D
:1032B0000022254B20463146FCF788FFFDF718F920
:1032C000102409E0002C0ADB0A220023FCF74EFF41
:1032D000079B30321A55641E02460A43F2D111226E
:1032E000641C079B121B1C19119B012B03D001238B
:1032F00008430ED10AE0084304D0112010900020AA
:10330000119077E71098151A6D1E0BE01098824205
:1033100002DD00236D1C03E0824201DA00236D1EF2
:10332000002BEED0069811998260C16030C07EE714
:1033300001FCFFFF104D0000000014400000F03FB2
:10334000300000000000F0430000E03FFFB597B000
:103350000646002518E2252877D100242746FD4996
:10336000049400E00443761C32780120203A904017
:103370000842F7D130782A280ED002223078014650
:103380003039092916D804990A235943303940188D
:103390001443761C0490F1E7189802C80491189021
:1033A000002904DA0120400304434842049002202B
:1033B0000443761C30782E2814D1042004437078FE
:1033C000761C2A2809D11898761C80C8189009E024
:1033D0000A214F43303FC719761C307801463039F7
:1033E0000929F5D930786C2810D006DC4C281AD081
:1033F00068280ED06A2817D104E0742813D07A28E0
:1034000012D110E00120400504430CE00121090520
:1034100001E0032109050C437178814203D10120A9
:1034200000052418761C761C3078119066280BD085
:1034300013DC58287DD009DC00287BD04528F6D045
:103440004628F4D047281AD1A5E118E0632835D0E2
:10345000642870D0652812D19DE170286CD008DCFA
:103460006728F1D069287BD06E280DD06F2806D14F
:10347000BAE073282ED0752871D0782859D01A9ABE
:10348000199990476D1C7EE16002400F022809D017
:1034900003280DD00428189801680DD00D60001D78
:1034A000189070E11898EA1701680D604A60F6E715
:1034B000189801680D80F2E70D70F0E718986A46D9
:1034C00001781172001D18900020507202A800901F
:1034D000012005E0189802C8189000200091C04310
:1034E00061070DD5002101E00199491C0191B94204
:1034F00012DA8142F8DB009A515C0029F4D10BE02A
:10350000002101E00199491C01918142FADB019AF5
:103510000099895C0029F5D1019904981A9B471AF2
:1035200021463846199A00F097FA01994019451832
:103530000BE04FE02CE113E04EE00098009900789A
:10354000491C00911A9A199990470198401E0190C0
:10355000401CF2D1214638461A9B199A10E137E0F7
:103560000A200021009001916002410F022907D03A
:10357000189A01CA1892C2179446032908D00AE083
:103580001898C01DC108C90005C91891944607E0E4
:1035900000B2C2179446042902D140B2C1178C462A
:1035A00000226146944506DA0A46002140429141D4
:1035B0008C462D2102E0210504D52B216A4611738A
:1035C000012103E0E10701D02021F7E7029155E056
:1035D0000A200AE0102008E01020009000210420BA
:1035E00004430191082703E0082000210191009085
:1035F0006002410F022907D0189A01CA18920022CE
:103600009446032908D008E01898C01DC108C900D5
:1036100005C91891944603E080B2042900D1C0B2D4
:1036200000210291210729D51199702906D0009A0D
:103630001021019B4A401A4305D00EE040216A4602
:103640001173012108E06146014306D030216A462A
:1036500011731199517302210291009A0821019B63
:103660004A401A430AD16146014301D1610705D599
:1036700030216A46117301217F1E02911199582948
:1036800004D035A10E910DA90D910DE037A1F9E7F8
:103690006146019B009AFCF769FD0E9B8C469B5C82
:1036A0000D9A521E0D92137061460143F0D10D9890
:1036B00005A9081A20300190600703D501200004F5
:1036C000844300E001270198874201DD381A00E0B9
:1036D0000020019900904118029809180498401A96
:1036E0000490E00306D421461A9B199A049800F02E
:1036F000B3F94519002706E003A81A9AC05D199985
:1037000090476D1C7F1C02988742F5DBE0030CD5C7
:1037100021461A9B199A049800F09EF9451904E075
:103720001A9A3020199990476D1C0099481E0090F4
:103730000029F5DC08E00D980D990078491C0D91E1
:103740001A9A199990476D1C0199481E01900029F9
:10375000F1DC63E10928010030313233343536378A
:1037600038396162636465660000000030313233CD
:10377000343536373839414243444546000000006D
:1037800000F05AF94519761C3078002800D0E2E59F
:1037900028461BB0F0BD600700D406271898C01D4E
:1037A000C108C90048680A680831C30FDB071891CF
:1037B000190001D09CA108E0210501D59BA104E0DE
:1037C000E10701D09AA100E09AA1430011985B089B
:1037D000109165280CD006DC452809D046281DD05C
:1037E000472841D141E0662818D067283CD13CE009
:1037F0000021112F01DB112000E0781C01910090C5
:1038000008A911A8FFF7E8FC139905910021119A66
:1038100015927F1C12980197009150E00120C0077B
:1038200003900120019008A9009711A8FFF7D4FC8C
:10383000139A149905920022119B009212981593E5
:10384000059A0192002901D0104602E0791C401827
:103850000190381A01D5019804E04042401E0090C2
:10386000781C0190C01B029043E0012F00DA012771
:103870000021112F01DD112000E038460191009058
:1038800008A911A8FFF7A8FC13990591119A002126
:10389000129815920091019721070CD40599B9420D
:1038A00001DB019900E00191012904DD159A491E0F
:1038B000515C302906D0B84201DA011D05DA012138
:1038C000029115E00199491EEDE7002805DC0099F9
:1038D000411800910199091A03E0019A411C914293
:1038E00000DD01910099401A401C02900120C007A0
:1038F0000390200706D402990198814202DB002040
:10390000C043029000206946C87707AF01210398A1
:103910000337C907884224D0022011902B2012902F
:10392000039800280CDA404203902D20129007E003
:103930000A210398FCF704FC30317F1E0390397094
:103940001199481E11900029F2DC03980028EFD14C
:10395000791E129808703078202108404530BF1E2B
:10396000387006A8C01BC01D03901098007800286E
:1039700000D00120019941180298C0170918039836
:1039800009180498401A401E0490E00306D421460A
:103990001A9B199A049800F05FF84519109800785E
:1039A000002803D01A9A199990476D1CE00324D57A
:1039B00021461A9B199A049800F04EF845191CE00C
:1039C0000098002807DB00990598884203DD1598C8
:1039D000405C199901E0199930201A9A9047009893
:1039E0006D1C401C00900298401E0290002804D1DB
:1039F0001A9A2E20199990476D1C0199481E019022
:103A00000029DDDC05E038781A9A7F1C1999904767
:103A10006D1C0399481E03900029F4DC21461A9B73
:103A2000199A0498ACE600002D0000002B0000005D
:103A30002000000000000000F8B5044600251E46E6
:103A40001746880404D405E039462020B0476D1C91
:103A5000641EF9D52846F8BDFFB50446002581B09F
:103A60001E46C80301D5302700E02027880404D56E
:103A700005E038460399B0476D1C641EF9D5284609
:103A800005B0F0BD00000000040000002C000000A4
:103A9000001BB700008000000000000000000000D4
:103AA00000000000102700000000000000366E013A
:103AB000FF0000FE0100FD0200FC0300FB0400FA11
:103AC0000500F90600F80700F70800F60900F50AF6
:103AD00000F40B00F30C00F20D00F10E00F00F00EB
:103AE000EF1000EE1100ED1200EC1300EB1400EAF1
:103AF0001500E91600E81700E71800E61900E51AB6
:103B000000E41B00E31C00E21D00E11E00E01F00BA
:103B1000DF2000DE2100DD2200DC2300DB2400DAD0
:103B20002500D92600D82700D72800D62900D52A75
:103B300000D42B00D32C00D22D00D12E00D02F008A
:103B4000CF3000CE3100CD3200CC3300CB3400CAB0
:103B50003500C93600C83700C73800C63900C53A35
:103B600000C43B00C33C00C23D00C13E00C03F005A
:103B7000BF4000BE4100BD4200BC4300BB4400BA90
:103B80004500B94600B84700B74800B64900B54AF5
:103B900000B44B00B34C00B24D00B14E00B04F002A
:103BA000AF5000AE5100AD5200AC5300AB5400AA70
:103BB0005500A95600A85700A75800A65900A55AB5
:103BC00000A45B00A35C00A25D00A15E00A05F00FA
:103BD0009F60009E61009D62009C63009B64009A50
:103BE0006500996600986700976800966900956A75
:103BF00000946B00936C00926D00916E00906F00CA
:103C00008F70008E71008D72008C73008B74008A2F
:103C10007500897600887700877800867900857A34
:103C200000847B00837C00827D00817E00807F0099
:103C30007F80007E81007D82007C83007B84007A0F
:103C40008500798600788700778800768900758AF4
:103C500000748B00738C00728D00718E00708F0069
:103C60006F90006E91006D92006C93006B94006AEF
:103C70009500699600689700679800669900659AB4
:103C800000649B00639C00629D00619E00609F0039
:103C90005FA0005EA1005DA2005CA3005BA4005ACF
:103CA000A50059A60058A70057A80056A90055AA74
:103CB0000054AB0053AC0052AD0051AE0050AF0009
:103CC0004FB0004EB1004DB2004CB3004BB4004AAF
:103CD000B50049B60048B70047B80046B90045BA34
:103CE0000044BB0043BC0042BD0041BE0040BF00D9
:103CF0003FC0003EC1003DC2003CC3003BC4003A8F
:103D0000C50039C60038C70037C80036C90035CAF3
:103D10000034CB0033CC0032CD0031CE0030CF00A8
:103D20002FD0002ED1002DD2002CD3002BD4002A6E
:103D3000D50029D60028D70027D80026D90025DAB3
:103D40000024DB0023DC0022DD0021DE0020DF0078
:103D50001FE0001EE1001DE2001CE3001BE4001A4E
:103D6000E50019E60018E70017E80016E90015EA73
:103D70000014EB0013EC0012ED0011EE0010EF0048
:103D80000FF0000EF1000DF2000CF3000BF4000A2E
:103D9000F50009F60008F70007F80006F90005FA33
:103DA0000004FB0003FC0002FD0001FE0000FF0018
:103DB00000FE0100FD0200FC0300FB0400FA050008
:103DC000F90600F80700F70800F60900F50A00F404
:103DD0000B00F30C00F20D00F10E00F00F00EF10DD
:103DE00000EE1100ED1200EC1300EB1400EA1500D8
:103DF000E91600E81700E71800E61900E51A00E4E4
:103E00001B00E31C00E21D00E11E00E01F00DF209C
:103E100000DE2100DD2200DC2300DB2400DA2500A7
:103E2000D92600D82700D72800D62900D52A00D4C3
:103E30002B00D32C00D22D00D12E00D02F00CF305C
:103E400000CE3100CD3200CC3300CB3400CA350077
:103E5000C93600C83700C73800C63900C53A00C4A3
:103E60003B00C33C00C23D00C13E00C03F00BF401C
:103E700000BE4100BD4200BC4300BB4400BA450047
:103E8000B94600B84700B74800B64900B54A00B483
:103E90004B00B34C00B24D00B14E00B04F00AF50DC
:103EA00000AE5100AD5200AC5300AB5400AA550017
:103EB000A95600A85700A75800A65900A55A00A463
:103EC0005B00A35C00A25D00A15E00A05F009F609C
:103ED000009E61009D62009C63009B64009A6500E7
:103EE000996600986700976800966900956A009443
:103EF0006B00936C00926D00916E00906F008F705C
:103F0000008E71008D72008C73008B74008A7500B6
:103F1000897600887700877800867900857A008422
:103F20007B00837C00827D00817E00807F007F801B
:103F3000007E81007D82007C83007B84007A850086
:103F4000798600788700778800768900758A007402
:103F50008B00738C00728D00718E00708F006F90DB
:103F6000006E91006D92006C93006B94006A950056
:103F7000699600689700679800669900659A0064E2
:103F80009B00639C00629D00619E00609F005FA09B
:103F9000005EA1005DA2005CA3005BA4005AA50026
:103FA00059A60058A70057A80056A90055AA0054C2
:103FB000AB0053AC0052AD0051AE0050AF004FB05B
:103FC000004EB1004DB2004CB3004BB4004AB500F6
:103FD00049B60048B70047B80046B90045BA0044A2
:103FE000BB0043BC0042BD0041BE0040BF003FC01B
:103FF000003EC1003DC2003CC3003BC4003AC500C6
:1040000039C60038C70037C80036C90035CA003481
:10401000CB0033CC0032CD0031CE0030CF002FD0DA
:10402000002ED1002DD2002CD3002BD4002AD50095
:1040300029D60028D70027D80026D90025DA002461
:10404000DB0023DC0022DD0021DE0020DF001FE09A
:10405000001EE1001DE2001CE3001BE4001AE50065
:1040600019E60018E70017E80016E90015EA001441
:10407000EB0013EC0012ED0011EE0010EF000FF05A
:10408000000EF1000DF2000CF3000BF4000AF50035
:1040900009F60008F70007F80006F90005FA000421
:1040A000FB0003FC0002FD0001FE0000FF0100FE1A
:1040B0000200FD0300FC0400FB0500FA0600F907FE
:1040C00000F80800F70900F60A00F50B00F40C00F0
:1040D000F30D00F20E00F10F00F01000EF1100EEF2
:1040E0001200ED1300EC1400EB1500EA1600E917BE
:1040F00000E81800E71900E61A00E51B00E41C00C0
:10410000E31D00E21E00E11F00E02000DF2100DED1
:104110002200DD2300DC2400DB2500DA2600D9277D
:1041200000D82800D72900D62A00D52B00D42C008F
:10413000D32D00D22E00D12F00D03000CF3100CEB1
:104140003200CD3300CC3400CB3500CA3600C9373D
:1041500000C83800C73900C63A00C53B00C43C005F
:10416000C33D00C23E00C13F00C04000BF4100BE91
:104170004200BD4300BC4400BB4500BA4600B947FD
:1041800000B84800B74900B64A00B54B00B44C002F
:10419000B34D00B24E00B14F00B05000AF5100AE71
:1041A0005200AD5300AC5400AB5500AA5600A957BD
:1041B00000A85800A75900A65A00A55B00A45C00FF
:1041C000A35D00A25E00A15F00A060009F61009E51
:1041D00062009D63009C64009B65009A660099677D
:1041E00000986800976900966A00956B00946C00CF
:1041F000936D00926E00916F009070008F71008E31
:1042000072008D73008C74008B75008A760089773C
:1042100000887800877900867A00857B00847C009E
:10422000837D00827E00817F008080007F81007E10
:1042300082007D83007C84007B85007A86007987FC
:1042400000788800778900768A00758B00748C006E
:10425000738D00728E00718F007090006F91006EF0
:1042600092006D93006C94006B95006A96006997BC
:1042700000689800679900669A00659B00649C003E
:10428000639D00629E00619F0060A0005FA1005ED0
:10429000A2005DA3005CA4005BA5005AA60059A77C
:1042A0000058A80057A90056AA0055AB0054AC000E
:1042B00053AD0052AE0051AF0050B0004FB1004EB0
:1042C000B2004DB3004CB4004BB5004AB60049B73C
:1042D0000048B80047B90046BA0045BB0044BC00DE
:1042E00043BD0042BE0041BF0040C0003FC1003E90
:1042F000C2003DC3003CC4003BC5003AC60039C7FC
:104300000038C80037C90036CA0035CB0034CC00AD
:1043100033CD0032CE0031CF0030D0002FD1002E6F
:10432000D2002DD3002CD4002BD5002AD60029D7BB
:104330000028D80027D90026DA0025DB0024DC007D
:1043400023DD0022DE0021DF0020E0001FE1001E4F
:10435000E2001DE3001CE4001BE5001AE60019E77B
:104360000018E80017E90016EA0015EB0014EC004D
:1043700013ED0012EE0011EF0010F0000FF1000E2F
:10438000F2000DF3000CF4000BF5000AF60009F73B
:104390000008F80007F90006FA0005FB0004FC001D
:1043A00003FD0002FE0001FF00000000001BB7003B
:1043B000000000000080000000366E01001BB70006
:1043C000000000000080000000366E01001BB700F6
:1043D000000000000080000000366E0100000000B8
:1043E000040000000C000000240000000000000099
:1043F000040000000C000000240000000000000089
:10440000200000000000000020000000001BB7009A
:10441000008000000044950810270000006CDC02BA
:10442000000000000000000000366E0144656D6F62
:104430005374617465203D202532640D0A00434C9D
:104440004B5F47657450434C4B3046726571203A60
:10445000202538640D0A00434C4B5F476574504378
:104460004C4B3146726571203A202538640D0A00A4
:10447000434C4B5F47657448434C4B467265712013
:104480003A202538640D0A00434C4B5F4765744859
:10449000585446726571203A202538640D0A00434D
:1044A0004C4B5F4765744C585446726571203A20F6
:1044B0002538640D0A000D0A434C4B5F4765744371
:1044C000505546726571203A202538640D0A0069FE
:1044D0006E76616C696420636F6D6D616E640D0A48
:1044E000002020486172644661756C74210A0A00DC
:1044F000104500000000002014000000BA31000048
:104500002445000018000020B8040000CA31000053
:104510009000000001000000004495080044950848
:04452000FF01000097
:04000005000000FDFA
:00000001FF
